{
  "contractName": "EcommerceOrderPurchasing",
  "abi": [
    {
      "inputs": [],
      "stateMutability": "nonpayable",
      "type": "constructor"
    },
    {
      "anonymous": false,
      "inputs": [
        {
          "indexed": false,
          "internalType": "string",
          "name": "message",
          "type": "string"
        }
      ],
      "name": "CancelOrder",
      "type": "event"
    },
    {
      "anonymous": false,
      "inputs": [
        {
          "indexed": false,
          "internalType": "string",
          "name": "message",
          "type": "string"
        }
      ],
      "name": "IssueRefund",
      "type": "event"
    },
    {
      "anonymous": false,
      "inputs": [
        {
          "indexed": false,
          "internalType": "string",
          "name": "message",
          "type": "string"
        }
      ],
      "name": "PlaceOrder",
      "type": "event"
    },
    {
      "inputs": [],
      "name": "getProducts",
      "outputs": [
        {
          "components": [
            {
              "internalType": "string",
              "name": "id",
              "type": "string"
            },
            {
              "internalType": "string",
              "name": "name",
              "type": "string"
            },
            {
              "internalType": "string",
              "name": "description",
              "type": "string"
            },
            {
              "internalType": "string",
              "name": "image",
              "type": "string"
            },
            {
              "internalType": "uint256",
              "name": "price",
              "type": "uint256"
            }
          ],
          "internalType": "struct Products.Product[3]",
          "name": "",
          "type": "tuple[3]"
        }
      ],
      "stateMutability": "view",
      "type": "function",
      "constant": true
    },
    {
      "inputs": [
        {
          "internalType": "string",
          "name": "productId",
          "type": "string"
        }
      ],
      "name": "placeOrder",
      "outputs": [
        {
          "internalType": "string",
          "name": "",
          "type": "string"
        }
      ],
      "stateMutability": "payable",
      "type": "function",
      "payable": true
    },
    {
      "inputs": [
        {
          "internalType": "string",
          "name": "orderID",
          "type": "string"
        }
      ],
      "name": "cancelOrder",
      "outputs": [
        {
          "internalType": "string",
          "name": "",
          "type": "string"
        }
      ],
      "stateMutability": "payable",
      "type": "function",
      "payable": true
    },
    {
      "inputs": [
        {
          "internalType": "string",
          "name": "orderID",
          "type": "string"
        }
      ],
      "name": "issueRefund",
      "outputs": [
        {
          "internalType": "string",
          "name": "",
          "type": "string"
        }
      ],
      "stateMutability": "payable",
      "type": "function",
      "payable": true
    }
  ],
  "bytecode": "0x60806040526001601060006101000a81548160ff021916908360ff1602179055506040516200002e90620005e6565b604051809103906000f0801580156200004b573d6000803e3d6000fd5b50601060016101000a81548173ffffffffffffffffffffffffffffffffffffffff021916908373ffffffffffffffffffffffffffffffffffffffff1602179055503480156200009957600080fd5b50620000aa6200014160201b60201c565b601060019054906101000a900473ffffffffffffffffffffffffffffffffffffffff1673ffffffffffffffffffffffffffffffffffffffff16634a1f6125336040518263ffffffff1660e01b815260040162000107919062000639565b600060405180830381600087803b1580156200012257600080fd5b505af115801562000137573d6000803e3d6000fd5b50505050620009e6565b6040518060a001604052806040518060400160405280600c81526020017f70726f647563745f69645f31000000000000000000000000000000000000000081525081526020016040518060400160405280600981526020017f50726f647563742031000000000000000000000000000000000000000000000081525081526020016040518060400160405280600d81526020017f4465736372697074696f6e20310000000000000000000000000000000000000081525081526020016040518060400160405280600781526020017f696d6167655f31000000000000000000000000000000000000000000000000008152508152602001670de0b6b3a7640000815250600080600381106200025b576200025a62000656565b5b600502016000820151816000019081620002769190620008ff565b5060208201518160010190816200028e9190620008ff565b506040820151816002019081620002a69190620008ff565b506060820151816003019081620002be9190620008ff565b50608082015181600401559050506040518060a001604052806040518060400160405280600c81526020017f70726f647563745f69645f32000000000000000000000000000000000000000081525081526020016040518060400160405280600981526020017f50726f647563742032000000000000000000000000000000000000000000000081525081526020016040518060400160405280600d81526020017f4465736372697074696f6e20320000000000000000000000000000000000000081525081526020016040518060400160405280600781526020017f696d6167655f32000000000000000000000000000000000000000000000000008152508152602001671bc16d674ec800008152506000600160038110620003e757620003e662000656565b5b600502016000820151816000019081620004029190620008ff565b5060208201518160010190816200041a9190620008ff565b506040820151816002019081620004329190620008ff565b5060608201518160030190816200044a9190620008ff565b50608082015181600401559050506040518060a001604052806040518060400160405280600c81526020017f70726f647563745f69645f33000000000000000000000000000000000000000081525081526020016040518060400160405280600981526020017f50726f647563742033000000000000000000000000000000000000000000000081525081526020016040518060400160405280600d81526020017f4465736372697074696f6e20330000000000000000000000000000000000000081525081526020016040518060400160405280600781526020017f696d6167655f330000000000000000000000000000000000000000000000000081525081526020016729a2241af62c0000815250600060026003811062000573576200057262000656565b5b6005020160008201518160000190816200058e9190620008ff565b506020820151816001019081620005a69190620008ff565b506040820151816002019081620005be9190620008ff565b506060820151816003019081620005d69190620008ff565b5060808201518160040155905050565b61297a806200175383390190565b600073ffffffffffffffffffffffffffffffffffffffff82169050919050565b60006200062182620005f4565b9050919050565b620006338162000614565b82525050565b600060208201905062000650600083018462000628565b92915050565b7f4e487b7100000000000000000000000000000000000000000000000000000000600052603260045260246000fd5b600081519050919050565b7f4e487b7100000000000000000000000000000000000000000000000000000000600052604160045260246000fd5b7f4e487b7100000000000000000000000000000000000000000000000000000000600052602260045260246000fd5b600060028204905060018216806200070757607f821691505b6020821081036200071d576200071c620006bf565b5b50919050565b60008190508160005260206000209050919050565b60006020601f8301049050919050565b600082821b905092915050565b600060088302620007877fffffffffffffffffffffffffffffffffffffffffffffffffffffffffffffffff8262000748565b62000793868362000748565b95508019841693508086168417925050509392505050565b6000819050919050565b6000819050919050565b6000620007e0620007da620007d484620007ab565b620007b5565b620007ab565b9050919050565b6000819050919050565b620007fc83620007bf565b620008146200080b82620007e7565b84845462000755565b825550505050565b600090565b6200082b6200081c565b62000838818484620007f1565b505050565b5b8181101562000860576200085460008262000821565b6001810190506200083e565b5050565b601f821115620008af57620008798162000723565b620008848462000738565b8101602085101562000894578190505b620008ac620008a38562000738565b8301826200083d565b50505b505050565b600082821c905092915050565b6000620008d460001984600802620008b4565b1980831691505092915050565b6000620008ef8383620008c1565b9150826002028217905092915050565b6200090a8262000685565b67ffffffffffffffff81111562000926576200092562000690565b5b620009328254620006ee565b6200093f82828562000864565b600060209050601f83116001811462000977576000841562000962578287015190505b6200096e8582620008e1565b865550620009de565b601f198416620009878662000723565b60005b82811015620009b1578489015182556001820191506020850194506020810190506200098a565b86831015620009d15784890151620009cd601f891682620008c1565b8355505b6001600288020188555050505b505050505050565b610d5d80620009f66000396000f3fe60806040526004361061003f5760003560e01c80632b75bbc214610044578063453217f814610074578063c2558ffd146100a4578063c29b2f20146100d4575b600080fd5b61005e6004803603810190610059919061061d565b6100ff565b60405161006b91906106e5565b60405180910390f35b61008e6004803603810190610089919061061d565b6101ec565b60405161009b91906106e5565b60405180910390f35b6100be60048036038101906100b9919061061d565b6102da565b6040516100cb91906106e5565b60405180910390f35b3480156100e057600080fd5b506100e96103c4565b6040516100f691906108ab565b60405180910390f35b60606000601060019054906101000a900473ffffffffffffffffffffffffffffffffffffffff1673ffffffffffffffffffffffffffffffffffffffff1663bf65b3323485346040518463ffffffff1660e01b81526004016101619291906108dc565b60006040518083038185885af115801561017f573d6000803e3d6000fd5b50505050506040513d6000823e3d601f19601f820116820180604052508101906101a991906109b4565b5090507fa9b37c42b72779fc40039ac9d259fc1b01406f04cff3859538d950de1e7bb692816040516101db91906106e5565b60405180910390a180915050919050565b60606000601060019054906101000a900473ffffffffffffffffffffffffffffffffffffffff1673ffffffffffffffffffffffffffffffffffffffff166303124ded348534336040518563ffffffff1660e01b815260040161025093929190610a51565b60006040518083038185885af115801561026e573d6000803e3d6000fd5b50505050506040513d6000823e3d601f19601f820116820180604052508101906102989190610a8f565b90507fe00dc285ed662da27a182a521016226af8c229c675360edda70b17fa82ab8c8f816040516102c991906106e5565b60405180910390a180915050919050565b60606000601060019054906101000a900473ffffffffffffffffffffffffffffffffffffffff1673ffffffffffffffffffffffffffffffffffffffff1663c2558ffd34856040518363ffffffff1660e01b815260040161033a91906106e5565b60006040518083038185885af1158015610358573d6000803e3d6000fd5b50505050506040513d6000823e3d601f19601f820116820180604052508101906103829190610a8f565b90507f6b2f88587b83cb197ac558b3eecc02a6d41b89be170be045616db8cdb85836a0816040516103b391906106e5565b60405180910390a180915050919050565b6103cc610467565b601060019054906101000a900473ffffffffffffffffffffffffffffffffffffffff1673ffffffffffffffffffffffffffffffffffffffff1663c29b2f206040518163ffffffff1660e01b8152600401600060405180830381865afa158015610439573d6000803e3d6000fd5b505050506040513d6000823e3d601f19601f820116820180604052508101906104629190610cde565b905090565b60405180606001604052806003905b61047e610494565b8152602001906001900390816104765790505090565b6040518060a0016040528060608152602001606081526020016060815260200160608152602001600081525090565b6000604051905090565b600080fd5b600080fd5b600080fd5b600080fd5b6000601f19601f8301169050919050565b7f4e487b7100000000000000000000000000000000000000000000000000000000600052604160045260246000fd5b61052a826104e1565b810181811067ffffffffffffffff82111715610549576105486104f2565b5b80604052505050565b600061055c6104c3565b90506105688282610521565b919050565b600067ffffffffffffffff821115610588576105876104f2565b5b610591826104e1565b9050602081019050919050565b82818337600083830152505050565b60006105c06105bb8461056d565b610552565b9050828152602081018484840111156105dc576105db6104dc565b5b6105e784828561059e565b509392505050565b600082601f830112610604576106036104d7565b5b81356106148482602086016105ad565b91505092915050565b600060208284031215610633576106326104cd565b5b600082013567ffffffffffffffff811115610651576106506104d2565b5b61065d848285016105ef565b91505092915050565b600081519050919050565b600082825260208201905092915050565b60005b838110156106a0578082015181840152602081019050610685565b60008484015250505050565b60006106b782610666565b6106c18185610671565b93506106d1818560208601610682565b6106da816104e1565b840191505092915050565b600060208201905081810360008301526106ff81846106ac565b905092915050565b600060039050919050565b600081905092915050565b6000819050919050565b600082825260208201905092915050565b600061074382610666565b61074d8185610727565b935061075d818560208601610682565b610766816104e1565b840191505092915050565b6000819050919050565b61078481610771565b82525050565b600060a08301600083015184820360008601526107a78282610738565b915050602083015184820360208601526107c18282610738565b915050604083015184820360408601526107db8282610738565b915050606083015184820360608601526107f58282610738565b915050608083015161080a608086018261077b565b508091505092915050565b6000610821838361078a565b905092915050565b6000602082019050919050565b600061084182610707565b61084b8185610712565b93508360208202850161085d8561071d565b8060005b85811015610899578484038952815161087a8582610815565b945061088583610829565b925060208a01995050600181019050610861565b50829750879550505050505092915050565b600060208201905081810360008301526108c58184610836565b905092915050565b6108d681610771565b82525050565b600060408201905081810360008301526108f681856106ac565b905061090560208301846108cd565b9392505050565b600061091f61091a8461056d565b610552565b90508281526020810184848401111561093b5761093a6104dc565b5b610946848285610682565b509392505050565b600082601f830112610963576109626104d7565b5b815161097384826020860161090c565b91505092915050565b60008115159050919050565b6109918161097c565b811461099c57600080fd5b50565b6000815190506109ae81610988565b92915050565b600080604083850312156109cb576109ca6104cd565b5b600083015167ffffffffffffffff8111156109e9576109e86104d2565b5b6109f58582860161094e565b9250506020610a068582860161099f565b9150509250929050565b600073ffffffffffffffffffffffffffffffffffffffff82169050919050565b6000610a3b82610a10565b9050919050565b610a4b81610a30565b82525050565b60006060820190508181036000830152610a6b81866106ac565b9050610a7a60208301856108cd565b610a876040830184610a42565b949350505050565b600060208284031215610aa557610aa46104cd565b5b600082015167ffffffffffffffff811115610ac357610ac26104d2565b5b610acf8482850161094e565b91505092915050565b600067ffffffffffffffff821115610af357610af26104f2565b5b602082029050919050565b600080fd5b600080fd5b600080fd5b610b1681610771565b8114610b2157600080fd5b50565b600081519050610b3381610b0d565b92915050565b600060a08284031215610b4f57610b4e610b03565b5b610b5960a0610552565b9050600082015167ffffffffffffffff811115610b7957610b78610b08565b5b610b858482850161094e565b600083015250602082015167ffffffffffffffff811115610ba957610ba8610b08565b5b610bb58482850161094e565b602083015250604082015167ffffffffffffffff811115610bd957610bd8610b08565b5b610be58482850161094e565b604083015250606082015167ffffffffffffffff811115610c0957610c08610b08565b5b610c158482850161094e565b6060830152506080610c2984828501610b24565b60808301525092915050565b6000610c48610c4384610ad8565b610552565b90508060208402830185811115610c6257610c61610afe565b5b835b81811015610ca957805167ffffffffffffffff811115610c8757610c866104d7565b5b808601610c948982610b39565b85526020850194505050602081019050610c64565b5050509392505050565b600082601f830112610cc857610cc76104d7565b5b6003610cd5848285610c35565b91505092915050565b600060208284031215610cf457610cf36104cd565b5b600082015167ffffffffffffffff811115610d1257610d116104d2565b5b610d1e84828501610cb3565b9150509291505056fea264697066735822122009180b1b8f0df1f3e5aca47e7a4249cf4b96811d7c3f3ca05890b312e4d8c62464736f6c6343000811003360806040526001601060006101000a81548160ff021916908360ff1602179055503480156200002d57600080fd5b506200003e6200004460201b60201c565b62000879565b6040518060a001604052806040518060400160405280600c81526020017f70726f647563745f69645f31000000000000000000000000000000000000000081525081526020016040518060400160405280600981526020017f50726f647563742031000000000000000000000000000000000000000000000081525081526020016040518060400160405280600d81526020017f4465736372697074696f6e20310000000000000000000000000000000000000081525081526020016040518060400160405280600781526020017f696d6167655f31000000000000000000000000000000000000000000000000008152508152602001670de0b6b3a7640000815250600080600381106200015e576200015d620004e9565b5b60050201600082015181600001908162000179919062000792565b50602082015181600101908162000191919062000792565b506040820151816002019081620001a9919062000792565b506060820151816003019081620001c1919062000792565b50608082015181600401559050506040518060a001604052806040518060400160405280600c81526020017f70726f647563745f69645f32000000000000000000000000000000000000000081525081526020016040518060400160405280600981526020017f50726f647563742032000000000000000000000000000000000000000000000081525081526020016040518060400160405280600d81526020017f4465736372697074696f6e20320000000000000000000000000000000000000081525081526020016040518060400160405280600781526020017f696d6167655f32000000000000000000000000000000000000000000000000008152508152602001671bc16d674ec800008152506000600160038110620002ea57620002e9620004e9565b5b60050201600082015181600001908162000305919062000792565b5060208201518160010190816200031d919062000792565b50604082015181600201908162000335919062000792565b5060608201518160030190816200034d919062000792565b50608082015181600401559050506040518060a001604052806040518060400160405280600c81526020017f70726f647563745f69645f33000000000000000000000000000000000000000081525081526020016040518060400160405280600981526020017f50726f647563742033000000000000000000000000000000000000000000000081525081526020016040518060400160405280600d81526020017f4465736372697074696f6e20330000000000000000000000000000000000000081525081526020016040518060400160405280600781526020017f696d6167655f330000000000000000000000000000000000000000000000000081525081526020016729a2241af62c00008152506000600260038110620004765762000475620004e9565b5b60050201600082015181600001908162000491919062000792565b506020820151816001019081620004a9919062000792565b506040820151816002019081620004c1919062000792565b506060820151816003019081620004d9919062000792565b5060808201518160040155905050565b7f4e487b7100000000000000000000000000000000000000000000000000000000600052603260045260246000fd5b600081519050919050565b7f4e487b7100000000000000000000000000000000000000000000000000000000600052604160045260246000fd5b7f4e487b7100000000000000000000000000000000000000000000000000000000600052602260045260246000fd5b600060028204905060018216806200059a57607f821691505b602082108103620005b057620005af62000552565b5b50919050565b60008190508160005260206000209050919050565b60006020601f8301049050919050565b600082821b905092915050565b6000600883026200061a7fffffffffffffffffffffffffffffffffffffffffffffffffffffffffffffffff82620005db565b620006268683620005db565b95508019841693508086168417925050509392505050565b6000819050919050565b6000819050919050565b6000620006736200066d62000667846200063e565b62000648565b6200063e565b9050919050565b6000819050919050565b6200068f8362000652565b620006a76200069e826200067a565b848454620005e8565b825550505050565b600090565b620006be620006af565b620006cb81848462000684565b505050565b5b81811015620006f357620006e7600082620006b4565b600181019050620006d1565b5050565b601f82111562000742576200070c81620005b6565b6200071784620005cb565b8101602085101562000727578190505b6200073f6200073685620005cb565b830182620006d0565b50505b505050565b600082821c905092915050565b6000620007676000198460080262000747565b1980831691505092915050565b600062000782838362000754565b9150826002028217905092915050565b6200079d8262000518565b67ffffffffffffffff811115620007b957620007b862000523565b5b620007c5825462000581565b620007d2828285620006f7565b600060209050601f8311600181146200080a5760008415620007f5578287015190505b62000801858262000774565b86555062000871565b601f1984166200081a86620005b6565b60005b8281101562000844578489015182556001820191506020850194506020810190506200081d565b8683101562000864578489015162000860601f89168262000754565b8355505b6001600288020188555050505b505050505050565b6120f180620008896000396000f3fe6080604052600436106100555760003560e01c806303124ded1461005a5780634a1f61251461008a578063bf65b332146100b3578063c1756a2c146100e4578063c2558ffd14610114578063c29b2f2014610144575b600080fd5b610074600480360381019061006f91906115b6565b61016f565b60405161008191906116a4565b60405180910390f35b34801561009657600080fd5b506100b160048036038101906100ac91906116c6565b610345565b005b6100cd60048036038101906100c891906116f3565b610389565b6040516100db92919061176a565b60405180910390f35b6100fe60048036038101906100f9919061179a565b6104b7565b60405161010b91906117da565b60405180910390f35b61012e600480360381019061012991906117f5565b61052e565b60405161013b91906116a4565b60405180910390f35b34801561015057600080fd5b506101596106fc565b60405161016691906119d8565b60405180910390f35b6060600061017c856109a0565b905061019b816000015160405180602001604052806000815250610d63565b156101de576040518060400160405280601281526020017f50726f6475637420697320696e76616c6964000000000000000000000000000081525091505061033e565b8381608001511461020a576040518060600160405280602781526020016120646027913991505061033e565b838373ffffffffffffffffffffffffffffffffffffffff16311015610267576040518060400160405280601281526020017f4e6f7420656e6f7567682062616c616e6365000000000000000000000000000081525091505061033e565b6000610274868686610dcf565b905061027f81610e81565b60006102ad601060019054906101000a900473ffffffffffffffffffffffffffffffffffffffff16876104b7565b905080610303576102c382600001516001610f61565b6040518060400160405280601281526020017f5472616e73616374696f6e206661696c65640000000000000000000000000000815250935050505061033e565b61031282600001516002610f61565b61033860405180606001604052806031815260200161208b603191398360000151610fb4565b93505050505b9392505050565b80601060016101000a81548173ffffffffffffffffffffffffffffffffffffffff021916908373ffffffffffffffffffffffffffffffffffffffff16021790555050565b606060008061039785610fe0565b905060008160a0015182604001516103af9190611a29565b905060008186111561042c576000826040516020016103ce9190611a7e565b604051602081830303815290604052905061041e6040518060400160405280601f81526020017f526566756e6420616d6f756e742069732067726561746572207468616e3a200081525082610fb4565b8295509550505050506104b0565b600061043c8460600151886104b7565b90508061048857816040518060400160405280601281526020017f5472616e73616374696f6e206661696c656400000000000000000000000000008152509095509550505050506104b0565b600191508160405180606001604052806026815260200161203e602691399095509550505050505b9250929050565b6000808373ffffffffffffffffffffffffffffffffffffffff16836040516104de90611aca565b60006040518083038185875af1925050503d806000811461051b576040519150601f19603f3d011682016040523d82523d6000602084013e610520565b606091505b505090508091505092915050565b6060600061053b83610fe0565b90506003600481111561055157610550611adf565b5b8160800151600481111561056857610567611adf565b5b036105ab576040518060400160405280601e81526020017f54686973206f7264657220697320616c72656164792063616e63656c656400008152509150506106f7565b6000600260048111156105c1576105c0611adf565b5b826080015160048111156105d8576105d7611adf565b5b148061060b57506004808111156105f2576105f1611adf565b5b8260800151600481111561060957610608611adf565b5b145b905080610651576040518060400160405280601b81526020017f546865206f726465722073746174757320697320696e76616c69640000000000815250925050506106f7565b60008260a0015183604001516106679190611a29565b9050600081036106a35761068083600001516003610f61565b60405180606001604052806024815260200161201a6024913993505050506106f7565b6000806106b08784610389565b9150915080156106ee576106c985600001516003610f61565b60405180606001604052806024815260200161201a60249139955050505050506106f7565b81955050505050505b919050565b61070461130e565b6000600380602002604051908101604052809291906000905b82821015610997578382600502016040518060a001604052908160008201805461074690611b3d565b80601f016020809104026020016040519081016040528092919081815260200182805461077290611b3d565b80156107bf5780601f10610794576101008083540402835291602001916107bf565b820191906000526020600020905b8154815290600101906020018083116107a257829003601f168201915b505050505081526020016001820180546107d890611b3d565b80601f016020809104026020016040519081016040528092919081815260200182805461080490611b3d565b80156108515780601f1061082657610100808354040283529160200191610851565b820191906000526020600020905b81548152906001019060200180831161083457829003601f168201915b5050505050815260200160028201805461086a90611b3d565b80601f016020809104026020016040519081016040528092919081815260200182805461089690611b3d565b80156108e35780601f106108b8576101008083540402835291602001916108e3565b820191906000526020600020905b8154815290600101906020018083116108c657829003601f168201915b505050505081526020016003820180546108fc90611b3d565b80601f016020809104026020016040519081016040528092919081815260200182805461092890611b3d565b80156109755780601f1061094a57610100808354040283529160200191610975565b820191906000526020600020905b81548152906001019060200180831161095857829003601f168201915b505050505081526020016004820154815250508152602001906001019061071d565b50505050905090565b6109a861133b565b60005b6003811015610cf657610a61600082600381106109cb576109ca611b6e565b5b6005020160000180546109dd90611b3d565b80601f0160208091040260200160405190810160405280929190818152602001828054610a0990611b3d565b8015610a565780601f10610a2b57610100808354040283529160200191610a56565b820191906000526020600020905b815481529060010190602001808311610a3957829003601f168201915b505050505084610d63565b15610ce35760008160038110610a7a57610a79611b6e565b5b600502016040518060a0016040529081600082018054610a9990611b3d565b80601f0160208091040260200160405190810160405280929190818152602001828054610ac590611b3d565b8015610b125780601f10610ae757610100808354040283529160200191610b12565b820191906000526020600020905b815481529060010190602001808311610af557829003601f168201915b50505050508152602001600182018054610b2b90611b3d565b80601f0160208091040260200160405190810160405280929190818152602001828054610b5790611b3d565b8015610ba45780601f10610b7957610100808354040283529160200191610ba4565b820191906000526020600020905b815481529060010190602001808311610b8757829003601f168201915b50505050508152602001600282018054610bbd90611b3d565b80601f0160208091040260200160405190810160405280929190818152602001828054610be990611b3d565b8015610c365780601f10610c0b57610100808354040283529160200191610c36565b820191906000526020600020905b815481529060010190602001808311610c1957829003601f168201915b50505050508152602001600382018054610c4f90611b3d565b80601f0160208091040260200160405190810160405280929190818152602001828054610c7b90611b3d565b8015610cc85780601f10610c9d57610100808354040283529160200191610cc8565b820191906000526020600020905b815481529060010190602001808311610cab57829003601f168201915b50505050508152602001600482015481525050915050610d5e565b8080610cee90611b9d565b9150506109ab565b506040518060a00160405280604051806020016040528060008152508152602001604051806020016040528060008152508152602001604051806020016040528060008152508152602001604051806020016040528060008152508152602001600081525090505b919050565b60008151835114610d775760009050610dc9565b81604051602001610d889190611c21565b6040516020818303038152906040528051906020012083604051602001610daf9190611c21565b604051602081830303815290604052805190602001201490505b92915050565b610dd761136a565b610ddf61136a565b610de761122f565b81600001819052508481602001819052508381604001818152505082816060019073ffffffffffffffffffffffffffffffffffffffff16908173ffffffffffffffffffffffffffffffffffffffff1681525050600081608001906004811115610e5357610e52611adf565b5b90816004811115610e6757610e66611adf565b5b8152505060008160a0018181525050809150509392505050565b80600f8260000151604051610e969190611c21565b90815260200160405180910390206000820151816000019081610eb99190611de4565b506020820151816001019081610ecf9190611de4565b506040820151816002015560608201518160030160006101000a81548173ffffffffffffffffffffffffffffffffffffffff021916908373ffffffffffffffffffffffffffffffffffffffff16021790555060808201518160030160146101000a81548160ff02191690836004811115610f4c57610f4b611adf565b5b021790555060a0820151816004015590505050565b6000600f83604051610f739190611c21565b90815260200160405180910390209050818160030160146101000a81548160ff02191690836004811115610faa57610fa9611adf565b5b0217905550505050565b60608282604051602001610fc9929190611eb6565b604051602081830303815290604052905092915050565b610fe861136a565b6000600f83604051610ffa9190611c21565b90815260200160405180910390206040518060c001604052908160008201805461102390611b3d565b80601f016020809104026020016040519081016040528092919081815260200182805461104f90611b3d565b801561109c5780601f106110715761010080835404028352916020019161109c565b820191906000526020600020905b81548152906001019060200180831161107f57829003601f168201915b505050505081526020016001820180546110b590611b3d565b80601f01602080910402602001604051908101604052809291908181526020018280546110e190611b3d565b801561112e5780601f106111035761010080835404028352916020019161112e565b820191906000526020600020905b81548152906001019060200180831161111157829003601f168201915b50505050508152602001600282015481526020016003820160009054906101000a900473ffffffffffffffffffffffffffffffffffffffff1673ffffffffffffffffffffffffffffffffffffffff1673ffffffffffffffffffffffffffffffffffffffff1681526020016003820160149054906101000a900460ff1660048111156111bc576111bb611adf565b5b60048111156111ce576111cd611adf565b5b81526020016004820154815250509050600081600001515111611226576040517f08c379a000000000000000000000000000000000000000000000000000000000815260040161121d90611f26565b60405180910390fd5b80915050919050565b6060600061124b601060009054906101000a900460ff166112d0565b9050600061128e6040518060400160405280600981526020017f6f726465725f69645f000000000000000000000000000000000000000000000081525083610fb4565b90506010600081819054906101000a900460ff16809291906112af90611f53565b91906101000a81548160ff021916908360ff16021790555050809250505090565b606060006030836112e19190611f7c565b60f81b9050806040516020016112f79190611ffe565b604051602081830303815290604052915050919050565b60405180606001604052806003905b61132561133b565b81526020019060019003908161131d5790505090565b6040518060a0016040528060608152602001606081526020016060815260200160608152602001600081525090565b6040518060c00160405280606081526020016060815260200160008152602001600073ffffffffffffffffffffffffffffffffffffffff168152602001600060048111156113bb576113ba611adf565b5b8152602001600081525090565b6000604051905090565b600080fd5b600080fd5b600080fd5b600080fd5b6000601f19601f8301169050919050565b7f4e487b7100000000000000000000000000000000000000000000000000000000600052604160045260246000fd5b61142f826113e6565b810181811067ffffffffffffffff8211171561144e5761144d6113f7565b5b80604052505050565b60006114616113c8565b905061146d8282611426565b919050565b600067ffffffffffffffff82111561148d5761148c6113f7565b5b611496826113e6565b9050602081019050919050565b82818337600083830152505050565b60006114c56114c084611472565b611457565b9050828152602081018484840111156114e1576114e06113e1565b5b6114ec8482856114a3565b509392505050565b600082601f830112611509576115086113dc565b5b81356115198482602086016114b2565b91505092915050565b6000819050919050565b61153581611522565b811461154057600080fd5b50565b6000813590506115528161152c565b92915050565b600073ffffffffffffffffffffffffffffffffffffffff82169050919050565b600061158382611558565b9050919050565b61159381611578565b811461159e57600080fd5b50565b6000813590506115b08161158a565b92915050565b6000806000606084860312156115cf576115ce6113d2565b5b600084013567ffffffffffffffff8111156115ed576115ec6113d7565b5b6115f9868287016114f4565b935050602061160a86828701611543565b925050604061161b868287016115a1565b9150509250925092565b600081519050919050565b600082825260208201905092915050565b60005b8381101561165f578082015181840152602081019050611644565b60008484015250505050565b600061167682611625565b6116808185611630565b9350611690818560208601611641565b611699816113e6565b840191505092915050565b600060208201905081810360008301526116be818461166b565b905092915050565b6000602082840312156116dc576116db6113d2565b5b60006116ea848285016115a1565b91505092915050565b6000806040838503121561170a576117096113d2565b5b600083013567ffffffffffffffff811115611728576117276113d7565b5b611734858286016114f4565b925050602061174585828601611543565b9150509250929050565b60008115159050919050565b6117648161174f565b82525050565b60006040820190508181036000830152611784818561166b565b9050611793602083018461175b565b9392505050565b600080604083850312156117b1576117b06113d2565b5b60006117bf858286016115a1565b92505060206117d085828601611543565b9150509250929050565b60006020820190506117ef600083018461175b565b92915050565b60006020828403121561180b5761180a6113d2565b5b600082013567ffffffffffffffff811115611829576118286113d7565b5b611835848285016114f4565b91505092915050565b600060039050919050565b600081905092915050565b6000819050919050565b600082825260208201905092915050565b600061187a82611625565b611884818561185e565b9350611894818560208601611641565b61189d816113e6565b840191505092915050565b6118b181611522565b82525050565b600060a08301600083015184820360008601526118d4828261186f565b915050602083015184820360208601526118ee828261186f565b91505060408301518482036040860152611908828261186f565b91505060608301518482036060860152611922828261186f565b915050608083015161193760808601826118a8565b508091505092915050565b600061194e83836118b7565b905092915050565b6000602082019050919050565b600061196e8261183e565b6119788185611849565b93508360208202850161198a85611854565b8060005b858110156119c657848403895281516119a78582611942565b94506119b283611956565b925060208a0199505060018101905061198e565b50829750879550505050505092915050565b600060208201905081810360008301526119f28184611963565b905092915050565b7f4e487b7100000000000000000000000000000000000000000000000000000000600052601160045260246000fd5b6000611a3482611522565b9150611a3f83611522565b9250828203905081811115611a5757611a566119fa565b5b92915050565b6000819050919050565b611a78611a7382611522565b611a5d565b82525050565b6000611a8a8284611a67565b60208201915081905092915050565b600081905092915050565b50565b6000611ab4600083611a99565b9150611abf82611aa4565b600082019050919050565b6000611ad582611aa7565b9150819050919050565b7f4e487b7100000000000000000000000000000000000000000000000000000000600052602160045260246000fd5b7f4e487b7100000000000000000000000000000000000000000000000000000000600052602260045260246000fd5b60006002820490506001821680611b5557607f821691505b602082108103611b6857611b67611b0e565b5b50919050565b7f4e487b7100000000000000000000000000000000000000000000000000000000600052603260045260246000fd5b6000611ba882611522565b91507fffffffffffffffffffffffffffffffffffffffffffffffffffffffffffffffff8203611bda57611bd96119fa565b5b600182019050919050565b600081905092915050565b6000611bfb82611625565b611c058185611be5565b9350611c15818560208601611641565b80840191505092915050565b6000611c2d8284611bf0565b915081905092915050565b60008190508160005260206000209050919050565b60006020601f8301049050919050565b600082821b905092915050565b600060088302611c9a7fffffffffffffffffffffffffffffffffffffffffffffffffffffffffffffffff82611c5d565b611ca48683611c5d565b95508019841693508086168417925050509392505050565b6000819050919050565b6000611ce1611cdc611cd784611522565b611cbc565b611522565b9050919050565b6000819050919050565b611cfb83611cc6565b611d0f611d0782611ce8565b848454611c6a565b825550505050565b600090565b611d24611d17565b611d2f818484611cf2565b505050565b5b81811015611d5357611d48600082611d1c565b600181019050611d35565b5050565b601f821115611d9857611d6981611c38565b611d7284611c4d565b81016020851015611d81578190505b611d95611d8d85611c4d565b830182611d34565b50505b505050565b600082821c905092915050565b6000611dbb60001984600802611d9d565b1980831691505092915050565b6000611dd48383611daa565b9150826002028217905092915050565b611ded82611625565b67ffffffffffffffff811115611e0657611e056113f7565b5b611e108254611b3d565b611e1b828285611d57565b600060209050601f831160018114611e4e5760008415611e3c578287015190505b611e468582611dc8565b865550611eae565b601f198416611e5c86611c38565b60005b82811015611e8457848901518255600182019150602085019450602081019050611e5f565b86831015611ea15784890151611e9d601f891682611daa565b8355505b6001600288020188555050505b505050505050565b6000611ec28285611bf0565b9150611ece8284611bf0565b91508190509392505050565b7f4f72646572206973206e6f7420666f756e640000000000000000000000000000600082015250565b6000611f10601283611630565b9150611f1b82611eda565b602082019050919050565b60006020820190508181036000830152611f3f81611f03565b9050919050565b600060ff82169050919050565b6000611f5e82611f46565b915060ff8203611f7157611f706119fa565b5b600182019050919050565b6000611f8782611f46565b9150611f9283611f46565b9250828201905060ff811115611fab57611faa6119fa565b5b92915050565b60007fff0000000000000000000000000000000000000000000000000000000000000082169050919050565b6000819050919050565b611ff8611ff382611fb1565b611fdd565b82525050565b600061200a8284611fe7565b6001820191508190509291505056fe596f75207375636365737366756c6c792063616e63656c656420796f7572206f72646572596f75207375636365737366756c6c7920726566756e64656420796f7572207061796d656e74416d6f756e74206973206e6f7420657175616c20746f207072696365206f662070726f64756374596f752068617665207375636365737366756c6c792070757263686173656420616e206f72646572207769746820696420a26469706673582212202f0703fec590db52e02972bf4b8432ea6664447f4aaa2226a26f4d5ffd8d4cc864736f6c63430008110033",
  "immutableReferences": {},
  "source": "/*\n  @class: CCMP 603 - Introduction to Smart Contracts - Assignment 2\n  @title: E-commerce Order Purchasing Smart Contract\n  @member: Le, Trung Hieu\n  @date: March 10, 2024\n  @notice: This contract allows customers to purchase products from a retailer.\n  @dev: The contract is implemented using Solidity version greater than 0.8.13\n\n  This contract is for educational purposes only. It is not intended for use in a production environment.\n  The aim of this contract is to not only complete the assignment but also try to implement as many of Solidity's features as possible, including\n  the use of libraries, interfaces, and abstract contracts.\n  There are some points that should be considered before reviewing the code:\n  - The EcommerceOrderPurchasing is the main contract of the EcommerceOrderPurchasing system.\n  - The EcommerceOrderPurchasingAbstract is an abstract contract that defines the functions of EcommerceOrderPurchasing.\n  - The EcommerceOrderPurchasingImplement is a contract that implements the functions of EcommerceOrderPurchasing.\n  - The Products contract is used to manage the products.\n  - The Orders contract is used to manage the orders.\n  - The library Utils contains utility functions for the EcommerceOrderPurchasing system.\n  - Because there is no double type in Solidity, the uint256 type is used to represent any double type that is defined in Assignment 1.\n  - Because there is no print function in Solidity, all print statements in Assignment 1 are replaced by the return statement.\n  - The number of products is fixed to 3, and the product information is hardcoded in the contract.\n  - The retailer is set by the deployer of the contract.\n\n  I am looking forward to receiving your feedback. Thank you for your time and consideration.\n*/\n// SPDX-License-Identifier: GPL-3.0\npragma solidity ^0.8.13;\n\n// Utils is a library that contains utility functions for the EcommerceOrderPurchasing system\n// The functions include uint8ToString, concatTwoStrings, and compareTwoStrings\n// reference: https://www.geeksforgeeks.org/solidity-libraries/\nlibrary Utils {\n    // uint8ToString is a utility function that converts a uint8 to a string\n    // @param number (uint8) - The number to be converted\n    // @return (string) - The string of the number\n    function uint8ToString(uint8 number) internal pure returns (string memory) {\n        // Convert uint8 to ASCII (single-character string)\n        // In ASCII, the digits 0-9 have the code points 48-57\n        // So, to convert a digit to its ASCII code, we can add 48 to the digit\n        bytes1 b = bytes1(uint8(number) + 48);\n\n        // Convert ASCII to string\n        return string(abi.encodePacked(b));\n    }\n\n    // concatTwoStrings is a utility function that concatenates two strings\n    // @param a (string) - The first string\n    // @param b (string) - The second string\n    // @return (string) - The concatenated string\n    function concatTwoStrings(string memory a, string memory b)\n    internal\n    pure\n    returns (string memory)\n    {\n        return string(abi.encodePacked(a, b));\n    }\n\n    // compareTwoStrings is a utility function that compares two strings\n    // @param a (string) - The first string\n    // @param b (string) - The second string\n    // @return (bool) - The result of the comparison\n    // reference: https://www.educative.io/answers/how-to-compare-two-strings-in-solidity\n    function compareTwoStrings(string memory a, string memory b)\n    internal\n    pure\n    returns (bool)\n    {\n        if (bytes(a).length != bytes(b).length) {\n            return false;\n        }\n        return keccak256(abi.encodePacked(a)) == keccak256(abi.encodePacked(b));\n    }\n}\n\n// Orders contract is used to manage the orders\ncontract Orders {\n    // _orders is a private mapping that stores the orders\n    mapping(string => Order) private _orders;\n\n    // orderIDSequence is a private variable that stores the sequence of order id\n    uint8 private orderIDSequence = 1;\n\n    // ORDER_ID_PREFIX is a private string constant that represents the prefix of an order id\n    string private constant ORDER_ID_PREFIX = \"order_id_\";\n\n    // OrderStatus is an enum type that represents the status of an order\n    enum OrderStatus {\n        PaymentPending, // default status\n        PaymentFailed, // status when payment failed\n        New, // status when a new order is created\n        Canceled, // status when an order is canceled\n        PartialRefunded // status when an order is partially refunded\n    }\n\n    // Order is a struct type that represents the information of an order\n    struct Order {\n        string id; // order id\n        string productID; // product id\n        uint256 amount; // the amount of the order, in this case, it is the price of the product.\n        address payable customerAddress; // the customer address\n        OrderStatus status; // the status of the order\n        uint256 refundedAmount; // the refunded amount of the order\n    }\n\n    // generateOrderID is a private function that generates an order id\n    // @return (STRING) - The order id\n    function generateOrderID() private returns (string memory) {\n        // Convert orderIDSequence to string\n        string memory orderIDSequenceStr = Utils.uint8ToString(orderIDSequence);\n\n        // Concatenate ORDER_ID_PREFIX and orderIDSequenceStr to create the order id\n        // For example, if orderIDSequence is 1, then the order id will be \"order_id_1\"\n        string memory newOrderID = Utils.concatTwoStrings(\n            ORDER_ID_PREFIX,\n            orderIDSequenceStr\n        );\n\n        // Increment orderIDSequence for the next order\n        orderIDSequence++;\n\n        return newOrderID;\n    }\n\n    // addOrderToOrders is a internal function that adds an order to the _orders\n    // @param order (ORDER) - The order to be added\n    function addOrderToOrders(Order memory order) internal {\n        _orders[order.id] = order;\n    }\n\n    // getOrder is a internal function that gets an order from the _orders\n    function getOrder(string memory orderID)\n    internal\n    view\n    returns (Order memory)\n    {\n        // Get the order from the _orders\n        Order memory order = _orders[orderID];\n\n        // Check if the order is found\n        // The require function is used to check if the condition is true. If the condition is false, then the function\n        // will stop and revert the transaction as well as return the defined error message.\n        // For example, if the order is not found, then the function will stop and return the error message \"Order is not found\"\n        require(bytes(order.id).length > 0, \"Order is not found\");\n\n        return order;\n    }\n\n    // createOrder is a private function that creates an order.\n    // @param productID (string) - The product id\n    // @param amount (uint256) - The amount of the product\n    // @param customerAddress (address) - The customer address\n    // @return (Order) - The order\n    function createOrder(\n        string memory productID,\n        uint256 amount,\n        address payable customerAddress\n    ) internal returns (Order memory) {\n        Order memory order;\n        order.id = generateOrderID();\n        order.productID = productID;\n        order.amount = amount;\n        order.customerAddress = customerAddress;\n        order.status = OrderStatus.PaymentPending;\n        order.refundedAmount = 0;\n        return order;\n    }\n\n    // updateOrderStatus is a private function that updates the status of an order.\n    // @param orderID (string) - The order id\n    // @param newStatus (OrderStatus) - The new status of the order\n    function updateOrderStatus(string memory orderID, OrderStatus newStatus)\n    internal\n    {\n        Order storage order = _orders[orderID];\n\n        // Update the status of the order\n        // The storage keyword is used to store the value in the storage of the contract. Therefore, the value will be\n        // updated in the _orders.\n        order.status = newStatus;\n    }\n}\n\n// Products contract is used to manage the products\ncontract Products {\n    // Product is a struct type that represents the information of a product\n    struct Product {\n        string id; // the id of the product\n        string name; // the name of the product\n        string description; // the description of the product\n        string image; // the image link of the product\n        uint256 price; // the price of the product\n    }\n\n    // listProducts is a private variable that stores the list of products\n    Product[3] internal listProducts;\n\n    constructor() {\n        // Set the list of products\n        setListProducts();\n    }\n\n    // setListProducts is a private function that sets the list of products\n    function setListProducts() private {\n        listProducts[0] = Product(\n            \"product_id_1\", // product id\n            \"Product 1\", // product name\n            \"Description 1\", // product description\n            \"image_1\", // product image\n            1e18 // product price in wei, is equal to 1 ether\n        );\n        listProducts[1] = Product(\n            \"product_id_2\", // product id\n            \"Product 2\", // product name\n            \"Description 2\", // product description\n            \"image_2\", // product image\n            2e18 // product price in wei, is equal to 2 ether\n        );\n        listProducts[2] = Product(\n            \"product_id_3\",\n            \"Product 3\",\n            \"Description 3\",\n            \"image_3\",\n            3e18 // in wei, is equal to 3 ether\n        );\n    }\n\n    // getProductFromListProducts is a private function that gets a product from the list of products\n    // @param productID (string) - The product id\n    // @return (Product) - The product\n    function getProductFromListProducts(string memory productID)\n    internal\n    view\n    returns (Product memory)\n    {\n        for (uint256 i = 0; i < listProducts.length; i++) {\n            // Check if the product id is equal to the productID\n            if (Utils.compareTwoStrings(listProducts[i].id, productID)) {\n                return listProducts[i];\n            }\n        }\n\n        // Return an empty product if the product is not found\n        return Product(\"\", \"\", \"\", \"\", 0);\n    }\n}\n\n// EcommerceOrderPurchasingAbstract is an interface that defines the functions of EcommerceOrderPurchasing\n// It inherits from Products\nabstract contract EcommerceOrderPurchasingAbstract is Products {\n    // getProducts is a function that returns the list of products\n    // @return (Product[3]) - The list of products\n    function getProducts() public view virtual returns (Product[3] memory);\n\n    // placeOrder is a function that is used to place an order\n    // @param productID (string) - The product id\n    // @param amount (uint256) - The amount of order, in this case, it is the price of the product\n    // @param customer (address) - The customer address\n    // @return (string) - The message of the result\n    function placeOrder(\n        string memory,\n        uint256,\n        address payable\n    ) external payable virtual returns (string memory);\n\n    // cancelOrder is a function that is used to cancel an order\n    // @param orderID (string) - The order id\n    // @return (string) - The message of the result\n    function cancelOrder(string memory)\n    public\n    payable\n    virtual\n    returns (string memory);\n\n    // issueRefund is a function that is used to issue a refund\n    // @param orderID (string) - The order id\n    // @param refundAmount (uint256) - The refund amount\n    function issueRefund(string memory, uint256)\n    public\n    payable\n    virtual\n    returns (string memory, bool);\n\n    // setRetailer is a function that is used to set the retailer\n    function setRetailer(address payable) public virtual;\n}\n\n// EcommerceOrderPurchasingImplement is a contract that implements the functions of EcommerceOrderPurchasing\n// It inherits from Products, Orders, and EcommerceOrderPurchasingAbstract\ncontract EcommerceOrderPurchasingImplement is\nProducts,\nOrders,\nEcommerceOrderPurchasingAbstract\n{\n    // retailer is a private variable that stores the retailer address\n    // The retailer is the address that receives the payment from the customer when an order is placed successfully and\n    // issues a refund when an order is canceled or partially refunded.\n    // The retailer is set by the setRetailer function.\n    address payable retailer;\n\n    // setRetailer is an implementation of the setRetailer function of EcommerceOrderPurchasingAbstract\n    // @param initRetailer (address) - The retailer address to be set\n    function setRetailer(address payable initRetailer) public override {\n        retailer = initRetailer;\n    }\n\n    // getProducts is an implementation of the getProducts function of EcommerceOrderPurchasingAbstract\n    // @return (Product[3]) - The list of products\n    function getProducts() public view override returns (Product[3] memory) {\n        return listProducts;\n    }\n\n    // placeOrder is an implementation of the placeOrder function of EcommerceOrderPurchasingAbstract\n    // @param productID (string) - The product id\n    // @param amount (uint256) - The amount of the product\n    // @param customer (address) - The customer address\n    // @return (string) - The message of the result\n    function placeOrder(\n        string memory productID,\n        uint256 amount,\n        address payable customer\n    ) external payable override returns (string memory) {\n        // Step 1: Check if the product is valid.\n        Product memory product = getProductFromListProducts(productID);\n        // If the product.id is equal to \"\", then the product is invalid.\n        if (Utils.compareTwoStrings(product.id, \"\")) {\n            return \"Product is invalid\";\n        }\n\n        // Step 1.1: Check if the amount is equal to the price of the product.\n        // Note: this step is not mentioned in the assignment 1, but I think it is necessary to check if the amount is\n        // equal to the price of the product. Therefore, I added this step to make the code more secure.\n        if (product.price != amount) {\n            return \"Amount is not equal to price of product\";\n        }\n\n        // Step 2: Check if the customer has enough balance.\n        if (customer.balance < amount) {\n            return \"Not enough balance\";\n        }\n\n        // Step 3: Create an order.\n        Order memory order = createOrder(productID, amount, customer);\n        addOrderToOrders(order);\n\n        // Step 4: Issue a transaction from customer to retailer.\n        bool sent = sendEther(retailer, amount);\n        if (!sent) {\n            updateOrderStatus(order.id, OrderStatus.PaymentFailed);\n            return \"Transaction failed\";\n        }\n\n        updateOrderStatus(order.id, OrderStatus.New);\n        return\n            Utils.concatTwoStrings(\n            \"You have successfully purchased an order with id \",\n            order.id\n        );\n    }\n\n    // cancelOrder is an implementation of the cancelOrder function of EcommerceOrderPurchasingAbstract\n    // @param orderID (string) - The order id\n    // @return (string) - The message of the result\n    function cancelOrder(string memory orderID)\n    public\n    payable\n    override\n    returns (string memory)\n    {\n        // Step 1: Get Order info from order id.\n        Order memory order = getOrder(orderID);\n\n        // Step 2: Check if the order is already canceled.\n        if (order.status == OrderStatus.Canceled) {\n            return \"This order is already canceled\";\n        }\n\n        // Step 3: Proceed to cancel the order.\n        bool canCancelOrder = (order.status == OrderStatus.New ||\n            order.status == OrderStatus.PartialRefunded);\n        if (!canCancelOrder) {\n            return \"The order status is invalid\";\n        }\n\n        // Step 3.1: Calculate the refund amount.\n        uint256 refund_amount = order.amount - order.refundedAmount;\n\n        // Step 3.2: Check if the refund amount is 0 then update the order status to canceled.\n        if (refund_amount == 0) {\n            updateOrderStatus(order.id, OrderStatus.Canceled);\n            return \"You successfully canceled your order\";\n        }\n\n        // Step 3.3: Issue a refund and update the order status to canceled.\n        (string memory refundMessage, bool isRefundSuccess) = issueRefund(\n            orderID,\n            refund_amount\n        );\n        if (isRefundSuccess) {\n            updateOrderStatus(order.id, OrderStatus.Canceled);\n            return \"You successfully canceled your order\";\n        }\n        return refundMessage;\n    }\n\n    // issueRefund is an implementation of the issueRefund function of EcommerceOrderPurchasingAbstract\n    // @param orderID (string) - The order id\n    // @param refundAmount (uint256) - The refund amount\n    function issueRefund(string memory orderID, uint256 refundAmount)\n    public\n    payable\n    override\n    returns (string memory, bool)\n    {\n        // Step 1: Get order info from order id.\n        Order memory order = getOrder(orderID);\n\n        // Step 2: Calculate max refund amount.\n        uint256 maxRefundAmount = order.amount - order.refundedAmount;\n\n        // Step 3: Compare max refund amount with refund amount\n        bool isRefundSuccess = false;\n        if (refundAmount > maxRefundAmount) {\n            // convert maxRefundAmount to string\n            string memory maxRefundAmountStr = string(\n                abi.encodePacked(maxRefundAmount)\n            );\n            return (\n                Utils.concatTwoStrings(\n                \"Refund amount is greater than: \",\n                maxRefundAmountStr\n            ),\n                isRefundSuccess\n            );\n        }\n\n        // Step 4: Issue a refund transaction.\n        bool sent = sendEther(order.customerAddress, refundAmount);\n        if (!sent) {\n            return (\"Transaction failed\", isRefundSuccess);\n        }\n\n        isRefundSuccess = true;\n        return (\"You successfully refunded your payment\", isRefundSuccess);\n    }\n\n    // sendEther is a private function that sends ether to an address\n    // @param to (address) - The address to send ether to\n    // @param value (uint256) - The value of ether to send\n    // @return (bool) - The result of the transaction (true or false)\n    function sendEther(address payable to, uint256 value)\n    public\n    payable\n    returns (bool)\n    {\n        (bool sent, ) = to.call{value: value}(\"\");\n        return sent;\n    }\n}\n\n// EcommerceOrderPurchasing is the main contract of the EcommerceOrderPurchasing system.\n// It inherits from Products and Orders.\n// I used the contract EcommerceOrderPurchasingImplement to implement the functions of EcommerceOrderPurchasingAbstract.\n// This helps to separate the interface and the implementation of the EcommerceOrderPurchasing system.\n// Therefore, ensuring the encapsulation of the business logic.\ncontract EcommerceOrderPurchasing is Products, Orders {\n    // EcommerceOrderPurchasing is an instance of EcommerceOrderPurchasingAbstract that is used to call the functions of EcommerceOrderPurchasingImplement\n    EcommerceOrderPurchasingAbstract ecommerceOrderPurchasing =\n    new EcommerceOrderPurchasingImplement();\n\n    event PlaceOrder(string message);\n    event CancelOrder(string message);\n    event IssueRefund(string message);\n\n    constructor() {\n        // Set the retailer from the deployer of the contract\n        ecommerceOrderPurchasing.setRetailer(payable(msg.sender));\n    }\n\n    // getProducts is a public function that returns the list of products\n    // It calls the getProducts function of EcommerceOrderPurchasing\n    // @return (Product[3]) - The list of products\n    function getProducts() public view returns (Product[3] memory) {\n        return ecommerceOrderPurchasing.getProducts();\n    }\n\n    // placeOrder is a public function that is used to place an order\n    // It calls the placeOrder function of EcommerceOrderPurchasing\n    // @param productId (string) - The product id\n    // @return (string) - The message of the result\n    function placeOrder(string memory productId)\n    public\n    payable\n    returns (string memory)\n    {\n        // the {value: msg.value} is used to send the value of the transaction to the placeOrder function of\n        // EcommerceOrderPurchasing. Without this, the transaction maybe failed or the transaction will be sent to address's\n        // contract instead of the address's retailer.\n        string memory message = ecommerceOrderPurchasing.placeOrder{\n                value: msg.value\n            }(productId, msg.value, payable(msg.sender));\n        emit PlaceOrder(message);\n        return message;\n    }\n\n    // cancelOrder is a public function that is used to cancel an order.\n    // It calls the cancelOrder function of EcommerceOrderPurchasing.\n    // This function should be called by the retailer.\n    // @param orderID (string) - The order id\n    // @return (string) - The message of the result\n    function cancelOrder(string memory orderID)\n    public\n    payable\n    returns (string memory)\n    {\n        // the {value: msg.value} is used to send the value of the transaction to the cancelOrder function of\n        // EcommerceOrderPurchasing. Without this, the transaction maybe failed or the transaction will be sent to address's\n        // contract instead of the address's customer.\n        string memory message = ecommerceOrderPurchasing.cancelOrder{value: msg.value}(orderID);\n        emit CancelOrder(message);\n        return message;\n    }\n\n    // issueRefund is a public function that is used to issue a refund.\n    // It calls the issueRefund function of EcommerceOrderPurchasing.\n    // This function should be called by the retailer.\n    // @param orderID (string) - The order id\n    // @return (string) - The message of the result\n    function issueRefund(string memory orderID)\n    public\n    payable\n    returns (string memory)\n    {\n        // the {value: msg.value} is used to send the value of the transaction to the issueRefund function of\n        // EcommerceOrderPurchasing. Without this, the transaction maybe failed or the transaction will be sent to address's\n        // contract instead of the address's customer.\n        (string memory refundMessage, ) = ecommerceOrderPurchasing.issueRefund{\n                value: msg.value\n            }(orderID, msg.value);\n        emit IssueRefund(refundMessage);\n        return refundMessage;\n    }\n}\n",
  "sourcePath": "/Users/trunghieu/Library/Mobile Documents/com~apple~CloudDocs/data/cloud-computing-and-blockchain/ecommerce-order-purchasing-backend/contracts/EcommerceOrderPurchasing.sol",
  "compiler": {
    "name": "solc",
    "version": "0.8.17+commit.8df45f5f.Emscripten.clang"
  },
  "schemaVersion": "3.4.16",
  "updatedAt": "2024-04-03T07:06:12.859Z",
  "networkType": "ethereum",
  "devdoc": {
    "kind": "dev",
    "methods": {},
    "version": 1
  },
  "userdoc": {
    "kind": "user",
    "methods": {},
    "version": 1
  }
}